:020000040800F2
:10000000F0090020D90100084D1000084510000833
:1000100049100008C10600087B2F000800000000FE
:10002000000000000000000000000000492000085F
:100030006707000800000000D1130008592C0008D1
:10004000F3010008F3010008F3010008F3010008C0
:10005000F3010008F30100087D07000855080008B7
:10006000710800088D080008A9080008F3010008BD
:10007000F3010008F3010008F3010008F301000890
:10008000F3010008F3010008F3010008F301000880
:10009000F3010008F3010008F3010008C508000897
:1000A000F3010008F3010008F3010008F301000860
:1000B000F3010008F3010008F3010008F301000850
:1000C000F3010008F3010008F3010008F301000840
:1000D000F3010008DD2C0008112D0008452D000853
:1000E00099070008F3010008F301000800F002F886
:1000F00000F062F80AA090E8000C82448344AAF160
:100100000107DA4501D100F057F8AFF2090EBAE85D
:100110000F0013F0010F18BFFB1A43F0010318473B
:10012000E84C0000084D00000A444FF0000C10F8A5
:10013000013B13F0070408BF10F8014B1D1108BF65
:1001400010F8015B641E05D010F8016B641E01F805
:10015000016BF9D113F0080F1EBF10F8014BAD1C55
:100160000C1B09D16D1E58BF01F801CBFAD505E073
:1001700014F8016B01F8016B6D1EF9D59142D6D3CD
:10018000704700000023002400250026103A28BFF5
:1001900078C1FBD8520728BF30C148BF0B607047F9
:1001A000642900F0A580732900F0F08100207047D9
:1001B0001FB51FBD10B510BD00F054FA1146FFF772
:1001C000F7FF03F057F800F072FA03B4FFF7F2FFFD
:1001D00003BC02F05DFF0000094880470948004762
:1001E000FEE7FEE7FEE7FEE7FEE7FEE7FEE7FEE7E7
:1001F000FEE7FEE704480549054A064B7047000044
:100200007D2C0008ED000008F0030020F00900201C
:10021000F0050020F0050020704700000FB40449ED
:1002200010B503AA029800F0B5F910BC5DF814FBF4
:10023000680000202DE9F0410E46044600202062AF
:100240002046E168884730B3252805D0D4E901214C
:100250009047206A401CF2E7E16820460027884763
:10026000050018D0A5F14100192802D820354FF417
:1002700000673246294620462760FFF791FF40B1CC
:10028000012804D0F61D26F007060836D8E7361DEB
:10029000D6E72846DAE7206ABDE8F08170B50C465B
:1002A0000546012A05D02878800600D5EA69002392
:1002B00002E0012305E05B1C934202D2E05C0028CF
:1002C000F9D1A869E618C01AA861286A18442862FA
:1002D0002846AFF3008004E0D5E9012114F8010BB2
:1002E0009047B442F8D32846AFF3008070BD0000B9
:1002F0002DE9F0410646002410687529314616A5FF
:1003000010D0AFF30080002802DA404213A507E0C6
:1003100031688A0701D512A502E0490704D511A565
:10032000012401E0AFF3008000210A2206F1240736
:1003300009E0B0FBF2FCB0FBF2F302FB1C00303032
:1003400078541846491C0028F3D123462A463046E3
:10035000BDE8F04100F0AFB8000000002D00000043
:100360002B0000002000000040EA010310B59B07AD
:100370000FD1042A0DD310C808C9121F9C42F8D00F
:1003800020BA19BA884201D9012010BD4FF0FF30C0
:1003900010BD1AB1D30703D0521C07E0002010BDD6
:1003A00010F8013B11F8014B1B1B07D110F8013B62
:1003B00011F8014B1B1B01D1921EF1D1184610BD43
:1003C000032A40F2308010F0030C00F0158011F881
:1003D000013BBCF1020F624498BF11F801CB00F859
:1003E000013B38BF11F8013BA2F1040298BF00F8AD
:1003F00001CB38BF00F8013B11F0030300F0DC80B3
:10040000083AC0F0088051F8043B083A51F804CB90
:10041000A0E80810F5E7121D5CBF51F8043B40F856
:10042000043BAFF30080D20724BF11F8013B11F861
:1004300001CB48BF11F8012B24BF00F8013B00F8A5
:1004400001CB48BF00F8012B70474FF0000200B508
:10045000134694469646203922BFA0E80C50A0E8E7
:100460000C50B1F12001BFF4F7AF090728BFA0E895
:100470000C5048BF0CC05DF804EB890028BF40F861
:10048000042B08BF704748BF20F8022B11F0804FA3
:1004900018BF00F8012B70477047704770477047CE
:1004A00010B500F0BBF8006810BD10B5044600F0B0
:1004B000B5F8046010BD2DE9F0470D469946924607
:1004C000044600F124080168880604D5E06921F09B
:1004D0001001216000E00120A84201DD471B00E07F
:1004E0000027A1697A1902EB0900081AA061207897
:1004F000C00602D42046AFF30080002608E0D4E90D
:1005000001211AF806009047206A401C761C2062E0
:100510004E45F4DB2078C0060AD52046AFF30080B4
:1005200006E0D4E9012130209047206A401C206277
:10053000381EA7F10107F4DC07E0D4E9012118F81F
:1005400005009047206A401C2062281EA5F1010585
:10055000F3DC2046AFF300802078000602D50220AD
:10056000BDE8F0870120FBE710B5436913B1AFF395
:10057000008001E0FFF792FE012010BD127800F12B
:1005800024010A7000224A700122EDE711684FF041
:10059000FF32E9E7074B70B50D467B4400F047F8A2
:1005A0000446284600F056F810B14FF0FF3070BDF9
:1005B000204670BDB32C000010B5203AC0F00B806F
:1005C000B1E81850203AA0E81850B1E81850A0E857
:1005D0001850BFF4F5AF5FEA027C24BFB1E81850B1
:1005E000A0E8185044BF18C918C0BDE810405FEA21
:1005F000827C24BF51F8043B40F8043B08BF70479D
:10060000D20728BF31F8023B48BF11F8012B28BFA1
:1006100020F8023B48BF00F8012B704700487047A4
:100620008C03002001694A1C02610878704700B5FC
:100630008FB0CDE901310021059105497944CDE91B
:10064000031011466846FFF7F5FD0FB000BD00002E
:10065000E5FFFFFF007B00F0800070470048704717
:100660008C0300207546FFF7F9FFAE46050069468A
:10067000534620F00700854618B020B5FFF7BAFDB5
:10068000BDE820404FF000064FF000074FF0000893
:100690004FF0000B21F00701AC46ACE8C009ACE814
:1006A000C009ACE8C009ACE8C0098D46704710B578
:1006B0000446AFF300802046BDE81040FFF785BD3B
:1006C00000BFFEE770B500244FF4A06000F0F8FC16
:1006D000144800684FF47A72B0FBF2F1B1F1807FF8
:1006E00000D31DE021F07F40401E4FF0E02250611A
:1006F00050170F22002807DA13071E0E0A4B00F0CE
:100700000F052D1F5E5503E013071D0E074B1D54EB
:1007100000BF00204FF0E02290610720106100BF71
:10072000204670BD0C00002018ED00E000E400E061
:1007300030B5002314E001F0800400F4004584EAA1
:1007400025242CB14FF6FF7404EA4000504003E02A
:100750004FF6FF7404EA40004C06210E5C1CE3B225
:10076000082BE8DB30BD70470349086000BF024931
:1007700009680029FBD170479400002010B5054896
:10078000006810B1034908688047012000F0E4F8D0
:1007900010BD0000E401002010B54FF4806000F0AF
:1007A000E1F848B12A48806A10B12949886A80472F
:1007B0004FF4806000F0D0F84FF4006000F0D2F801
:1007C00048B12348C06A10B12149C86A80474FF434
:1007D000006000F0C1F84FF4805000F0C3F848B159
:1007E0001B48006B10B11A49086B80474FF48050CA
:1007F00000F0B2F84FF4005000F0B4F848B11448DB
:10080000406B10B11249486B80474FF4005000F024
:10081000A3F84FF4804000F0A5F848B10C48806B75
:1008200010B10B49886B80474FF4804000F094F87A
:100830004FF4004000F096F848B10548C06B10B185
:100840000349C86B80474FF4004000F085F810BDA5
:10085000E401002010B50548406810B1034948681C
:100860008047022000F078F810BD0000E40100206D
:1008700010B50548806810B1034988688047042096
:1008800000F06AF810BD0000E401002010B5054832
:10089000C06810B10349C8688047082000F05CF8C0
:1008A00010BD0000E401002010B50548006910B13A
:1008B000034908698047102000F04EF810BD000081
:1008C000E401002010B5202000F04CF840B1214890
:1008D000406910B11F4948698047202000F03CF86A
:1008E000402000F03FF840B11A48806910B1194922
:1008F00088698047402000F02FF8802000F032F80F
:1009000040B11448C06910B11249C86980478020BD
:1009100000F022F84FF4807000F024F848B10D4840
:10092000006A10B10B49086A80474FF4807000F0EC
:1009300013F84FF4007000F015F848B10548406A0C
:1009400010B10449486A80474FF4007000F004F881
:1009500010BD0000E401002001490860704700005C
:1009600014040140014600200022074B1B6803EAE3
:100970000102054B14331B680B4013B10AB101206F
:1009800000E0002070470000000401401FB5012472
:100990000120034602461121009001A800F014F93D
:1009A00004462CB12F221B491BA0FFF737FC1FBDAB
:1009B0000120034600221146009001A800F004F92E
:1009C00004462CB13722134913A0FFF727FCEEE7AA
:1009D0000120034600220146009001A800F0F4F82F
:1009E00004462CB13F220B490BA0FFF717FCDEE7B2
:1009F0000120034600220B21009001A800F0E4F83A
:100A000004462CB14722034903A0FFF707FCCEE7B9
:100A100000BFCCE7424C00085B257328292D2564D4
:100A20005D6770696F20696E6974206572726F729C
:100A30000D0A00001FB501240020042302460146D0
:100A40000090012000F07AF9044614B1204604B069
:100A500010BD0120002302460421009001A800F0EF
:100A6000B3F804460CB10120F1E72046EFE71CB5CE
:100A7000012400234FF4E1320121684600F03EFAE0
:100A800004460CB120461CBD2046FCE72DE9F04190
:100A9000024600250026002000230024002791F8AC
:100AA00003C00CF00F0591F803C00CF0100CBCF162
:100AB000000F03D091F802C04CEA050591F800C080
:100AC000BCF1000F31D0146800202BE04FF0010C76
:100AD0000CFA00F3B1F800C00CEA03069E4220D1E4
:100AE00083004FF00F0C0CFA03F7BC4305FA03FC2C
:100AF0004CEA040491F803C0BCF1280F06D14FF072
:100B0000010C0CFA00FCC2F814C00AE091F803C012
:100B1000BCF1480F05D14FF0010C0CFA00FCC2F8F3
:100B200010C0401C0828D1D31460B1F800C0BCF13B
:100B3000FF0F34DD546800202EE000F1080C4FF068
:100B4000010808FA0CF3B1F800C00CEA03069E4253
:100B500021D183004FF00F0C0CFA03F7BC4305FAC8
:100B600003FC4CEA040491F803C0BCF1280F05D142
:100B700000F1080C08FA0CF8C2F8148091F803C0D0
:100B8000BCF1480F07D100F1080C4FF0010808FA3A
:100B90000CF8C2F81080401C0828CED35460BDE881
:100BA000F0810246002093680B400BB1012000E069
:100BB0000020704741617047016170470AB10161CF
:100BC00000E04161704700002DE9F84305460C46FE
:100BD00016461F46DDF8209015B90320BDE8F883BE
:100BE0006F2C01DD0320F9E72C802046E11704EB90
:100BF00011710911A4EB0111334A32F81110698007
:100C0000E11704EB11710911304A52F821106960A3
:100C10002E72A046E11704EB117109112C4A52F80B
:100C20002100012100F0F6FB03208DF80200688806
:100C3000ADF80000072E2DD2DFE806F00414181CD2
:100C400020252A00012F03D148208DF8030008E059
:100C5000022F03D128208DF8030002E004208DF834
:100C6000030019E010208DF8030015E014208DF822
:100C7000030011E018208DF803000DE01C208DF812
:100C80000300FE20AAE700208DF80300FE20A5E760
:100C9000FE20A3E70120A1E700BF69466868FFF7CF
:100CA000F5FE012E01D0022E0BD1B9F1000F04D1B7
:100CB00069886868FFF77EFF03E069886868FFF766
:100CC0007BFF00208AE700008C4B000834000020E6
:100CD000B04B000870B504460E46002506E02846D5
:100CE0006D1CB0F5FA6F01D9FF2070BD124951F8A3
:100CF0002400022101F07CF90028F0D00E4951F8BF
:100D00002400314601F080F9002506E028466D1CDC
:100D1000B0F5FA6F01D9FF20E7E7074951F8240041
:100D2000012101F065F90028F0D0034951F82400B1
:100D300001F067F9C0B2D8E7840000202DE9F04344
:100D400089B004460E4617469846DDF840900125C6
:100D500004EB4400634901EB40004078012801D1D5
:100D60000425BBE0012004EB44015E4A02EB410193
:100D7000487004EB4400114601F8104004EB4400B5
:100D800001EB4000867004EB440001EB4000C770AB
:100D900004EB440001EB400080F8048004EB4400C5
:100DA00001EB400080F80590012C04D0022C2CD0DF
:100DB000032C56D153E00121080300F02BFB002047
:100DC000034603220521009006A8FFF7FDFE054615
:100DD0000020034603220621009006A8FFF7F4FE38
:100DE0002844C5B20020034603220721009006A82C
:100DF000FFF7EAFE2844C5B235B100214FF4805018
:100E000000F008FBFD2561E02DE00121880300F0E2
:100E1000E1FA0020034603221D21009006A8FFF7F7
:100E2000D3FE05460020034603221E21009006A89B
:100E3000FFF7CAFE2844C5B20020034603221F2143
:100E4000009006A8FFF7C0FE2844C5B235B10021C6
:100E50004FF4805000F0DEFAFD2537E003E0FE2578
:100E600034E0032532E000BF0020ADF804004FF469
:100E70008270ADF806000020ADF808001A4830F87E
:100E80001600ADF80A00194830F81700ADF80C004C
:100E90004FF40070ADF80E00154830F81800ADF8AA
:100EA0001000144830F81900ADF812000720ADF812
:100EB0001400114951F8240001A901F0A7F80E49C6
:100EC00051F82400012101F087F800BF002004EB55
:100ED0004401044A02EB4101487000BF284609B0B2
:100EE000BDE8F0836C000020264C00082A4C000866
:100EF0002E4C00083E4C0008840000202DE9F041F3
:100F00008CB007460C4690461D4601260FB1052CB5
:100F100003DD03200CB0BDE8F081474840F82450C1
:100F20007D60464951F8240001F032FF062C48D27A
:100F3000DFE804F04703234344450121880300F020
:100F400069FA0020034603220921009009A8FFF74F
:100F50003BFE06460020034602460A21009006A8F2
:100F6000FFF732FE3044C6B236B100214FF4804064
:100F700000F050FAFD265CE025E00121480400F075
:100F800029FA0020034603220221009009A8FFF756
:100F90001BFE06460020034602460321009006A8D9
:100FA000FFF712FE3044C6B236B100214FF40030D4
:100FB00000F010FAFD263CE005E000BF00BFFE2671
:100FC00037E0032635E000BF75B11D48005D8DF8A0
:100FD000140003208DF815008DF8160001208DF8FF
:100FE000170005A800F034F8CDF804800020ADF813
:100FF0000800ADF80A00ADF80C00ADF810000C20A8
:10100000ADF80E000D4951F8240001A901F040FF90
:101010003DB10A4951F82400012240F2255101F066
:1010200012FF064951F82400012101F0A5FE002617
:1010300000BF30466EE70000240200205000002070
:101040001F4C000800BFFEE700BFFEE7704700002E
:1010500070B5002100230F22C47804B3154C246816
:1010600004F4E064C4F5E064210AC1F10403CA4059
:10107000447804FA03F184781440214309010E4CAA
:101080000678A155047804F01F050124AC400578CA
:101090006D11AD0005F1E025C5F8004109E00478C7
:1010A00004F01F050124AC40044D0678761145F884
:1010B000264070BD0CED00E000E400E080E100E0BF
:1010C00002490143024A1160704700000000FA051E
:1010D0000CED00E0FEB504460D4616461F464C4892
:1010E0000580028821464B48FFF76AF970B24A49E9
:1010F00008704A4807704A49086B804723465B22BC
:10110000484949A08DE8E000FFF788F85448007886
:1011100000283AD00E2253493E48FFF725F920B95E
:101120005E22404950A0FFF779F8452054490870E5
:101130006D204870622088706520C8706420087136
:1011400065204871642088712D20C8715020087274
:1011500061204872722088727420C87279200873E6
:1011600001220D21464800F0E2F946490880084670
:101170000088001242494873424800788873284822
:101180000F21826A3E48904741E00D223E492148A6
:10119000FFF7EAF8002835D17B22224932A0FFF779
:1011A0003DF8482036490870652048706C208870EA
:1011B000C8706F2008712D204871452088717620F5
:1011C000C8716520087272204872792088726F2079
:1011D000C8726E2008736520487301220E212848CA
:1011E00000F0A5F927490880084600880012244924
:1011F000887324480078C87309481021826A2048FF
:10120000904704E00648416B4FF47A708847FEBD72
:1012100004000020A4010020060000200700002098
:10122000584C00085A4B00085B257328292D25646B
:101230005D5278446F6E650D0A7265636976653A32
:1012400025730D0A73697A653A25640D0A72737302
:10125000693A25640D0A736E723A25640D0A00001E
:1012600000000020424B00085B257328292D2564CF
:101270005D726563697665206F6B0D0A0000000082
:101280006401002002000020344B000810B5C52284
:10129000024903A0FEF7C2FF10BD00007B4B00080F
:1012A0005B257328292D25645D52784572726F7213
:1012B0000D0A000010B59F22204921A0FEF7AEFFC5
:1012C0002549086B80472548007800282FD0452005
:1012D000234908706D204870622088706520C870AE
:1012E0006420087165204871642088712D20C871C0
:1012F0005020087261204872722088727420C8726F
:101300007920087301220D21154800F010F91549C4
:101310000880084600880012114948731148007877
:1013200088730D480F21826A0D48904704E00A48EF
:10133000416B4FF47A70884710BD00006F4B000876
:101340005B257328292D25645D527854696D656F7E
:1013500075740D0A00000000584C000800000020C1
:10136000640100200200002010B54E22064907A0AB
:10137000FEF754FF0A49086B80470948416B4FF458
:101380007A70884710BD0000514B00085B25732818
:10139000292D25645D5478446F6E650D0A000000A8
:1013A000584C000810B59A22024903A0FEF736FFF8
:1013B00010BD0000634B00085B257328292D2564B0
:1013C0005D547854696D656F75740D0A00000000F6
:1013D0007047000029B1064AD2690243044BDA6122
:1013E00004E0034AD2698243014BDA61704700008E
:1013F0000010024029B1064A12690243044B1A61E7
:1014000004E0034A12698243014B1A6170470000ED
:101410000010024029B1064A92690243044B9A61C6
:1014200004E0034A92698243014B9A6170470000CD
:101430000010024029B1064AD2680243044BDA6028
:1014400004E0034AD2688243014BDA60704700002F
:101450000010024030B500210022002400232D4D51
:101460006D6805F00C0121B1042905D0082923D1AC
:1014700005E0294D056022E0274D05601FE0254D60
:101480006D6805F47012234D6D6805F480340225F3
:1014900005EB92421CB9214D554305600BE01D4DF3
:1014A0006D6805F400351DB11C4D5543056002E023
:1014B000194D5543056002E0174D056000BF00BFA0
:1014C000144D6D6805F0F0010909154D6B5C056858
:1014D000DD4045600F4D6D6805F4E061090A104D6F
:1014E0006B5C4568DD4085600A4D6D6805F46051B0
:1014F000C90A0B4D6B5C4568DD40C560054D6D68E4
:1015000005F44041890B074D6B5CC568B5FBF3F5ED
:10151000056130BD0010024000127A0000093D0054
:1015200020000020300000200146012070472DE9F6
:10153000F04306460F4614460025A846A946012C4E
:1015400002D148F2050001E041F221008146012C60
:1015500002D14FF6FF7001E041F60F5080460025A2
:1015600007E0715D4A464046FFF7E2F88046681C96
:10157000C5B2BD42F5DB012C02D14046BDE8F08387
:101580006FEA080080B2F9E702460AB91F207047E7
:10159000002111E00A4850F8310090420AD8084B67
:1015A000481C53F83000904204D9481C03EBC0009B
:1015B0000079ECE7481CC1B21529EBD300BFFEE768
:1015C000C44C000810B500F0B1FD032808D0042871
:1015D00002D0052806D101E0022010BD0120FCE761
:1015E0000320FAE70020F8E70320704710B504460F
:1015F0000E4804600E4800F03DFE002001F066F940
:10160000012001F0ACF80021084600F003FF04219E
:10161000002001F09EF900231A464FF6FF7108469C
:1016200000F043FF00200349087010BD380100207E
:10163000A91700083501002038B5002402214948C7
:10164000FFF7AFFA01287CD100204749087000F06D
:1016500060FD04464FF6FF7000F04DFD04F0010000
:1016600050B14248006838B140480068006818B17D
:101670003E4909680868804704F0020002281BD12F
:10168000FF2269463A4800F0AFFD3A4800F058FDA5
:101690003648006878B135480068806858B13548E8
:1016A00090F90D3090F90C20304800689DF800103A
:1016B00085682F48A84700BF04F0400040280AD1A1
:1016C0002A48006838B129480068006918B12749DC
:1016D00009680869804704F0800080280CD12348FD
:1016E000006848B121480068806928B11F48006837
:1016F0008169C4F30020884704F40070B0F5007FCE
:101700001ED100F013FD04280BD118480068B8B1B1
:1017100016480068406898B11449096848688047CD
:101720000EE000F003FD05280AD11048006838B12A
:101730000E480068C06818B10C490968C86880473D
:1017400000E00EE004F0200020280AD107480068DD
:1017500038B106480068C06818B104490968C8680B
:10176000804738BD000801403501002038010020C5
:10177000500200203C0200202DE9F04105460C46B5
:10178000174698460126284600F0B4F8204600F097
:101790008FF8002000F03EF80120FEF7E5FF00F092
:1017A000DEFA3046BDE8F08101200149087070473B
:1017B0003501002070B50025012000F09BF80020C5
:1017C00001F024F800240AE00120FEF7CDFF00F02C
:1017D00022FD00F00100A0400543601CC4B2202C93
:1017E000F2DB00F0BCFA284670BD10B50446204676
:1017F00000F0AEFD10BD70B504460D4616463246EB
:101800002946204600F0AEFD70BD10B5044600F03C
:1018100002FD10BD10B5044600231A464FF6FF71B5
:10182000084600F042FE06480078012804D16FF017
:101830007F4000F0EBFF02E0A00100F0E7FF10BDE9
:101840003401002010B5044600231A464FF6FF71FC
:10185000084600F02AFE06480078012804D16FF0FF
:101860007F4000F0E9FF02E0A00100F0E5FF10BDBD
:101870003401002070B505460C4600231A4640F29C
:101880000121084600F011FE00F0A8FC012802D159
:101890000648C47301E005480472044800F0D8FE0D
:1018A00000222146284600F0A9FD70BD500300200B
:1018B00010B50446204600F059FF10BD70B505462E
:1018C0000C46012D06D1094804700948C47300F084
:1018D000BFFE09E00648C079012805D1034804701D
:1018E0000348047200F0B4FE70BD0000280100201F
:1018F0005003002010B5044614B1012C07D000BFDE
:10190000002000F015FF00200A49487010E0012077
:1019100000F00EFF0748407806490978884206D053
:101920000448007803494870487800F005F800BF83
:1019300000BF10BD3601002010B504460E480470EB
:1019400044700120FFF7D6FF012C0AD134214FF457
:10195000E86001F0D7F8442140F2417001F0D2F87C
:1019600009E014214FF4E86001F0CCF8242140F2A2
:10197000417001F0C7F810BD360100202DE9F04F8D
:101980008FB080460D4614469946DDF874B0DDE907
:101990001AA7199E78A103C9CDE90C0178492198AD
:1019A0000870012F03D177491C98087002E0FF20CE
:1019B00074490870B8F1000F03D0B8F1010F77D166
:1019C00077E0002000F096FF00206F4981F82800A2
:1019D0000846C4620B2180F834102846FFF7D4FD76
:1019E0000146694880F835100020674908704FF6B5
:1019F000FF7000EAC6004880042163480171182185
:101A000041710021817187F00101C1715D48017848
:101A10005D480172BBF1010F02D1F221417202E077
:101A200001215948417200215748817200F0A7F9FD
:101A3000554991F8281009B1012100E0002108461C
:101A4000FFF758FF5048283000F05CFD4E4800F08A
:101A5000FFFD0CA800F055FF40F2FF1000F0BEFFA4
:101A6000204602F035FC02460B46CDE9000100207D
:101A7000464902F091FA0022454BCDE9020102F0FD
:101A800077FCCDE90601504602F022FCCDE90401C5
:101A9000DDE9062302F06CFC00223E4BCDE9080193
:101AA00002F066FCCDE90A0102F0CEFB3A4908607B
:101AB0005EE0002000F01EFF0AF0FF0000F01AFDBB
:101AC0000120314981F82800084680F83840334821
:101AD000415D2D4880F8391080F83A901DB90B2CE3
:101AE00005D00C2C03D0012D06D10C2C04D10121E2
:101AF000254880F83B1003E00021234880F83B1084
:101B0000012021490870084690F83800052804D0C3
:101B1000084690F83800062808D10C2E03DA0C216C
:101B20001948818104E01848868101E016488681C1
:101B300015488773134801781348C17380F810B0B3
:101B400020994174014691F8281009B1012100E063
:101B500000210846FFF7CEFE0B48283000F0D2FCEB
:101B6000094800F075FD4FF6FF700B49086000BF93
:101B700000BF0FB0BDE8F08FC194C10000000000AD
:101B80003401002028010020500300200000F03F15
:101B90000000204000408F4030010020744D0008BC
:101BA00070B504460D462946204600F061FE70BD22
:101BB0002DE9FC5F0746884691461C46DDE90FABE0
:101BC0000E9E0C9D59A103C9CDE9000117B1012F4B
:101BD0004AD14AE00020574981F828000846C562EA
:101BE0000B2180F834102046FFF7CEFC0146514807
:101BF00080F83510C0F8309000204E4908704FF63C
:101C0000FF7000EAC600488004214A48017118218B
:101C10004171002181718AF00101C171BBF1010F95
:101C200002D1F221417202E00121424841720121B8
:101C30004048817200F0A3F83E4991F8281009B19C
:101C4000012100E000210846FFF754FE3948283002
:101C500000F058FC374800F0FBFC684600F051FEED
:101C600040F2FF1000F0BAFE57E00120314981F840
:101C70002800084680F838502F48015D2D4880F82C
:101C800039100D9980F83A101CB90B2D05D00C2D88
:101C900003D0012C06D10C2D04D10121254880F858
:101CA0003B1003E00021234880F83B10012021492C
:101CB0000870084690F83800052804D0084690F8C7
:101CC0003800062808D10C2E03DA0C21194881812E
:101CD00004E01848868101E016488681154880F89E
:101CE0000EA0164801781348C17380F810B01399FC
:101CF000417400F044F80F4991F8281009B101210E
:101D000000E000210846FFF7F5FD0A48283000F002
:101D1000F9FB084800F09CFC00BF00BF404600F003
:101D20006DFD074914980860BDE8FC9FC194C1008F
:101D30000000000050030020744D0008280100201E
:101D40002C01002070B505460C461646284600F0CA
:101D50000DFD204600F052FD00F0F4FD70BD08B509
:101D6000002000909DF8000020F00400001D00906D
:101D7000009800F09DFD0220FEF7F6FC08BD10B5AE
:101D8000002000F0A3FD10BD10B500F051FB10BD08
:101D90002DE9F34F91B000201090119810B1012857
:101DA00053D153E07B49C86A02F092FACDE90A01A7
:101DB000129802F08DFACDE9060176494A884979F0
:101DC00002EBE10002F06DFACDE904017148C0793F
:101DD00010B90020034601E000206F4B0246CDE918
:101DE0000203DDE9040102F01BF88046DDE9062369
:101DF00002F016F8CDE908016648407A022803D1BE
:101E000000204FF0804101E000200146804642461C
:101E10000B46DDE9080102F003F8824600225F4B21
:101E200002F0A6FA0646DDE90A2302F0B5F8002220
:101E30005B4BCDE90C0102F09BFACDE90E0101F0FC
:101E4000C7FF044602F000FA10909DE0514890F858
:101E50003900001F00EB4000524901EB00114D48D2
:101E600090F83800C0F10C0001EBC00003C8CDE9C8
:101E70000E014849888902F02BFA044600224A4B99
:101E800001F0CEFF0646DDE90E2302F071FACDE93E
:101E90000C01404991F83A10CA17059101EB927173
:101EA0008A100599A1EB8201081D02F0FAF9CDE92B
:101EB0000201384991F8382091F83B10002901DDE2
:101EC000022100E00021511A880002F0EAF90646DA
:101ED0000F461299CA002F4991F83810042303FBCA
:101EE00011221C322B49097C102303FB01222949B2
:101EF000897B012901D1142100E00021501A02F050
:101F0000D0F932463B46CDE9000102F045F8824661
:101F100001F0C2F80446DDE9022302F029FA804606
:101F20008946002213464046494602F01FFB02D272
:101F30004046494601E000200146044622460B4641
:101F40000020164901F06CFFCDE90A01DDE90E23FE
:101F5000DDE90A0102F00CFACDE90801DDE9082308
:101F6000DDE90C0101F05CFFCDE906010F4A104BE1
:101F7000DDE9060101F054FF044601F0FBF80646D6
:101F800002F062F9109000BF00BF109813B0BDE8D6
:101F9000F08F0000500300200000F03F00002040C0
:101FA00000408F4098000020000011402B8716D978
:101FB000CEF7EF3F70B504460D462946204600F0A7
:101FC000A1FD70BD70B504460D4616463246294641
:101FD000204600F09FFD70BD21B1028842F0400212
:101FE000028004E002884FF6BF731A4002807047F7
:101FF0000246002013890B400BB1012000E00020B5
:1020000070470146888970478181704710B500226A
:10201000028802F441520B884C8823438C88234366
:10202000CC8823430C8923434C8923438C89234345
:10203000CC8923431A430280838B4FF2FF742340E1
:1020400083830B8A038210BD70477047704700007E
:1020500038B504461B48844206D9E1208DF80000BB
:10206000E9208DF8010026E01748844206D9D720E0
:102070008DF80000D8208DF801001CE01348844240
:1020800006D9C1208DF80000C5208DF8010012E0AE
:102090000F48844206D975208DF8000081208DF804
:1020A000010008E00B48844205D96B208DF8000040
:1020B0006F208DF8010002226946982000F0FAFC9A
:1020C00038BD000000E9A43580F8A9328044E52D30
:1020D000000B6B1B40FC541910B500F027F818B129
:1020E00000F024F8062803D100F0A2FCFFF7AEFFB1
:1020F00000F092FC10BD38B50446200A8DF80000AF
:10210000E0B28DF8010002226946104600F0D2FCD0
:1021100038BD08B502226946122000F0EDF89DF89E
:1021200001009DF8001040EA012008BD0148007838
:10213000704700003C01002001460220704700006B
:1021400038B5044603226946142000F0D5F800F0A3
:1021500045F82070207820B1012814D00F2831D103
:1021600031E09DF8000020719DF8010040424010D0
:1021700041B2A1719DF802004042401041B261712C
:102180000021A16026E09DF800004042401041B2CD
:1021900021739DF80100802804DA9DF80100811068
:1021A000617305E09DF80100A0F5807081106173F6
:1021B0009DF802004042401041B2A17306480168F8
:1021C000216107E000BF14212046FEF73EF90F20F1
:1021D000207000BF00BF38BD4001002001480078DA
:1021E000704700003D010020F8B505460C46164634
:1021F000002000906946204600F01BF82078B0428D
:1022000001DD0120F8BD227829469DF8000000F08C
:1022100043F80020F6E738B500240122694615206E
:1022200000F06AF89DF800004042401044B2204699
:1022300038BD38B504460D4602226946132000F029
:102240005BF8FFF7CBFF01280DD140F2047000F0DE
:102250007FF80121B1EBE01F05D140F2027000F0E0
:1022600077F8207002E09DF8000020709DF80100D2
:10227000287038BD10B5044600F0A8F800F0D8FB6F
:10228000002000F023FB012000F008F901200149A3
:10229000087010BD3C0100202DE9F04105460E46B6
:1022A00017460024FFF718FF002210211148FEF7FF
:1022B00085FC1E210120FEF70DFD29460120FEF7B9
:1022C00009FD00210120FEF705FD00BF06E0002109
:1022D0000120FEF7FFFC3055601C84B2BC42F6DBE7
:1022E000012210210348FEF769FC00F095FBBDE8D0
:1022F000F0810000000801402DE9F04105460E463E
:1023000017460024FFF7E8FE002210210F48FEF7D1
:1023100055FC29460120FEF7DDFC00210120FEF7D7
:10232000D9FC00BF06E000210120FEF7D3FC3055A8
:10233000601C84B2BC42F6DB012210210348FEF788
:102340003DFC00F069FBBDE8F081000000080140A1
:1023500038B5044601226946204600F003F89DF88E
:10236000000038BD2DE9F04104460E461746002511
:10237000FFF7B2FE002210211348FEF71FFC1D21BB
:102380000120FEF7A7FC210A0120FEF7A3FCE1B221
:102390000120FEF79FFC00210120FEF79BFC00BFFF
:1023A00006E000210120FEF795FC7055681C85B2FF
:1023B000BD42F6DB012210210348FEF7FFFB00F0CF
:1023C0002BFBBDE8F08100000008014010B50A2099
:1023D000FEF7CAF9002202210748FEF7EFFB14209E
:1023E000FEF7C2F9012202210348FEF7E7FB0A20AB
:1023F000FEF7BAF910BD0000000C014070B50546AB
:102400000E4614463146284600F0A0F9204600F05A
:1024100083FA70BD38B505460C468DF800508DF82E
:102420000140022269468F2000F044FB38BD0000C5
:1024300010B500221146C52000F03CFB07200149E1
:10244000087010BD3C01002038B50446200A8DF804
:102450000000E0B28DF80100FFF7C0FE30B90222A3
:10246000694640F2BE6000F055FB00E000BF00BFCF
:1024700038BD38B50446200A8DF80000E0B28DF86A
:102480000100FFF7ABFE30B90222694640F2BC60A2
:1024900000F040FB00E000BF00BF38BD01B50122E5
:1024A00069469D2000F006FB08BD2DE9FC4107466A
:1024B0000C4615461E46380A8DF80000F8B28DF815
:1024C0000100200A8DF80200E0B28DF80300280A0E
:1024D0008DF80400E8B28DF80500300A8DF806008A
:1024E000F0B28DF8070008226946104600F0E2FAC3
:1024F000BDE8FC8101B501226946A02000F0DAFAAE
:1025000008BD00002DE9F04786B004464FF00009F1
:1025100000200490059020783F490978884202D035
:10252000207800F005F9207820B1012859D00F2833
:102530006BD16BE04FF0080A606801F0C9FE0746F6
:102540003A460B460020354901F026FD054600229B
:10255000334B01F00DFFCDE9020101F075FE81461C
:102560004FEA19408DF810004FEA19208DF811003C
:1025700009F0FF008DF81200207B8DF81300607BBE
:102580008DF814000022274B1046990300F034FF09
:1025900005462A460B460020204901F0FDFC07466F
:1025A0008846A06801F094FE3A464346CDE9000112
:1025B00001F0F2FCCDE9020101F046FE81464FEA4E
:1025C00019408DF815004FEA19208DF8160009F012
:1025D000FF008DF81700524604A98B2000F06AFA1C
:1025E00017E04FF0040A207C8DF81000607C8DF815
:1025F0001100A07C8DF81200E07C8DF8130052468B
:1026000004A98B2000F056FA03E000BF06B0BDE835
:10261000F08700BF00BFF9E73D01002080847E41C4
:102620000000404000003940F8B504460D4616460B
:102630001F468DF800408DF801508DF802608DF82E
:10264000037004226946952000F034FAF8BD0000BA
:10265000FEB50446002600200090019002902078EC
:1026600032490978884202D0207800F061F8207859
:1026700020B101283AD00F284DD14DE0607AF128E1
:1026800009D14FF6FF70FFF7F4FE48F20500FFF79F
:10269000DBFE02260DE0607AF22809D141F60F50E8
:1026A000FFF7E7FE41F22100FFF7CEFE062600E02D
:1026B000667A09256088000A8DF80000A0788DF8F8
:1026C000010020798DF8020060798DF80300A0796F
:1026D0008DF80400E0798DF80500207A8DF8060069
:1026E0008DF80760A07A8DF8080016E00625A0890D
:1026F000000A8DF80000207B8DF80100A07B8DF88A
:102700000200E07B8DF80300207C8DF80400607CE3
:102710008DF8050001E000BFFEBD00BF2A466946F6
:102720008C2000F0C7F900BFF6E700003D01002053
:1027300001B59DF8000004490870012269468A200D
:1027400000F0B8F908BD00003D01002070B5044656
:102750000D462A462146002000F082F970BD01B5E1
:1027600001226946962000F0A5F908BD2DE9FE4F2B
:1027700083464FF0000A1E48007828B95846FFF7F4
:1027800067FC01201A49087000221A4B1046990371
:1027900000F032FE02460B46CDE90001002016494A
:1027A00001F0FAFB06460F46584601F091FD8046BF
:1027B00032463B4601F0F0FB044601F045FD8246FF
:1027C0004FEA1A608DF808004FEA1A408DF80900A8
:1027D0004FEA1A208DF80A000AF0FF008DF80B006E
:1027E000042202A9862000F065F9BDE8FE8F0000F2
:1027F000440100200000394080847E4110B5044629
:102800000221204600F0A5F810BD000038B50446AE
:10281000052008490870200C8DF80000200A8DF86A
:102820000100E0B28DF8020003226946822000F028
:1028300041F938BD3C01002038B5044605200B495C
:102840000870962140F6AC0000F05CF9200C8DF881
:102850000000200A8DF80100E0B28DF8020003228A
:102860006946822000F026F938BD00003C010020B6
:102870007CB505460C46280C8DF80000280A8DF81A
:102880000100E8B28DF80200200C8DF80300200A48
:102890008DF80400E0B28DF8050006226946942008
:1028A00000F008F90620014908707CBD3C010020B9
:1028B00001B5FFF7CAFB01226946842000F0FAF84F
:1028C00000200149087008BD3C01002001B501222B
:1028D0006946802000F0EEF89DF8000018B901204C
:1028E0000349087002E002200149087008BD000099
:1028F0003C01002001B5012269469F2000F0DAF872
:1029000008BD10B50446082221464FF4D86000F0F7
:1029100001F9002010BD000038B504460420084924
:102920000870200C8DF80000200A8DF80100E0B23C
:102930008DF8020003226946832000F0BBF838BD01
:102940003C01002010B500221146D12000F0B2F861
:1029500010BD38B504460D460020FFF7EDFB0128F9
:102960001DD10F2C06D101231A4600210620FFF7A6
:102970005BFE05E001231A4600210420FFF754FE08
:102980000E2C01DB0E2404E014F1030F01DA6FF0CA
:102990000204182140F6E70000F0B4F813E0012328
:1029A000002207210420FFF73FFE162C01DD16242C
:1029B00004E014F1030F01DA6FF00204382140F64D
:1029C000E70000F09FF8E0B28DF800008DF80150AC
:1029D000022269468E2000F06DF838BD70B50446BD
:1029E0000025FFF7FBFB98B94FF4D760FFF7B0FC69
:1029F00000F0FE05C4F30020054329464FF4D760DC
:102A000000F080F8E1B240F2B96000F07BF800E03D
:102A100000BF00BF70BD000010B500BF012103481A
:102A2000FEF7BFF80128F9D010BD000000080140F2
:102A300010B5002210210948FEF7C0F8C02101207E
:102A4000FEF748F900210120FEF744F90122102188
:102A50000248FEF7B3F8FFF7DFFF10BD00080140A2
:102A60002DE9F04105460E4617460024FFF734FBDA
:102A7000002210210E48FEF7A1F80E210120FEF7DA
:102A800029F929460120FEF725F900BF05E0315D4F
:102A90000120FEF71FF9601C84B2BC42F7DB012263
:102AA00010210348FEF78AF8FFF7B6FFBDE8F08172
:102AB000000801402DE9F04104460E461746002566
:102AC000FFF70AFB002210210D48FEF777F8214698
:102AD0000120FEF7FFF800BF05E0715D0120FEF761
:102AE000F9F8681C85B2BD42F7DB012210210448C9
:102AF000FEF764F8842C01D0FFF78EFFBDE8F0816B
:102B00000008014013B50446012201A9204600F047
:102B100001F81CBD2DE9F04104460E46174600257C
:102B2000FFF7DAFA002210211048FEF747F80D21CE
:102B30000120FEF7CFF8210A0120FEF7CBF8E1B221
:102B40000120FEF7C7F800BF05E0715D0120FEF728
:102B5000C1F8681C85B2BD42F7DB01221021034891
:102B6000FEF72CF8FFF758FFBDE8F08100080140A0
:102B700010B500F001F810BD0CB5002001900090D8
:102B80003348006840F480303149086000BF304865
:102B9000006800F4003000900198401C01900098FB
:102BA00018B90198B0F5A06FF1D12948006800F478
:102BB000003010B10120009001E00020009000984A
:102BC000012843D12348006840F0100021490860E3
:102BD0000846006820F0030008600846006840F0DE
:102BE000020008601A484068194948600846406871
:102BF00048600846406840F4806048600846406885
:102C000020F47C1048600846406840F4E8104860B2
:102C10000846006840F08070086000BF0C480068FB
:102C200000F000700028F9D00948406820F0030047
:102C3000074948600846406840F00200486000BF0D
:102C40000348406800F00C000828F9D10CBD0000D2
:102C5000001002400020024006480068401C054960
:102C600008600548006820B103480068401E02491A
:102C700008607047080000209400002010B5134839
:102C8000006840F00100114908600846406810499A
:102C900008400E494860084600680E4908400B4944
:102CA00008600846006820F48020086008464068F4
:102CB00020F4FE0048604FF41F008860FFF758FFC3
:102CC0004FF000600449086010BD00000010024091
:102CD0000000FFF8FFFFF6FE08ED00E010B50A491E
:102CE0004868202100F0A2F801280BD1074840686D
:102CF00040B10549486800F037F9C4B2034841685B
:102D00002046884710BD000050000020240200200B
:102D100010B50A498868202100F088F801280BD1F5
:102D20000748806840B10549886800F01DF9C4B2C1
:102D3000034881682046884710BD000050000020ED
:102D40002402002010B50A49C868202100F06EF85E
:102D500001280BD10748C06840B10549C86800F098
:102D600003F9C4B20348C1682046884710BD00007B
:102D7000500000202402002021B1828942F4005238
:102D8000828104E082894DF6FF731A408281704788
:102D900010B504462048844209D101218803FEF77A
:102DA00049FB00214FF48040FEF744FB32E01B4812
:102DB000844209D101214804FEF71CFB00214FF495
:102DC0000030FEF717FB25E01548844209D10121A8
:102DD0008804FEF70FFB00214FF48020FEF70AFB6A
:102DE00018E01048844209D10121C804FEF702FB13
:102DF00000214FF40020FEF7FDFA0BE00A48844260
:102E000008D101210805FEF7F5FA00214FF48010E2
:102E1000FEF7F0FA10BD0000003801400044004009
:102E200000480040004C0040005000400246002096
:102E3000B1F5007F00D100BF13880B400BB101201A
:102E400000E000207047F0B503460024002600256E
:102E5000002040F66A17B94200D100BF1846C1F3FE
:102E6000421401F01F06012707FA06F5012C01D1D3
:102E70000C3004E0022C01D1103000E014301AB103
:102E800007682F43076002E00768AF430760F0BDA3
:102E90002DE9F04786B005460E460024A24600BF45
:102EA000A1460027B08900B100BF2F462C8A4CF6FE
:102EB000FF700440F08804432C82AC894EF6F31076
:102EC0000440B08831890843718908430443AC81C8
:102ED000AC8A4FF6FF400440B0890443AC8201A89D
:102EE000FEF7B8FA1F48874202D1DDF810A001E0D2
:102EF000DDF80CA0A88900F4004040B10AEBCA003C
:102F000000EB0A1031684900B0FBF1F807E00AEB6A
:102F1000CA0000EB0A1031688900B0FBF1F86420A8
:102F2000B8FBF0F004012009642101FB1089A88995
:102F300000F4004040B1322000EBC900B0FBF1F0DA
:102F400000F00700044308E0322000EB0910642180
:102F5000B0FBF1F000F00F0004432C8106B0BDE897
:102F6000F08700000038014001468888C0F308005F
:102F70007047C1F308028280704700BFFEE7490036
:102F800050EAC12018BF04204A0D18BF40F00100CC
:102F900040F2FF72B2EB515F08BF40F0020001281F
:102FA00008BF052070472DE9F0414F1E00EBC70117
:102FB0000446D1E9000115461E4637F006020DD041
:102FC0002A46334601F0D4F97F1E04EBC703D3E948
:102FD000002300F025FF37F00602F1D1022F25D0A3
:102FE000042F13D0062F18BFBDE8F0812A463346C0
:102FF00001F0BEF9D4E90A2300F012FF2A46334655
:1030000001F0B6F9D4E9082300F00AFF2A46334656
:1030100001F0AEF9D4E9062300F002FF2A46334658
:1030200001F0A6F9D4E9042300F0FAFE2A4633465B
:1030300001F09EF9D4E9022300F0F2FE2A4633465D
:1030400001F096F9D4E90023BDE8F04100F0E8BEB4
:10305000002213461046014900F09EBF0000F03FD9
:1030600000F0DEBE002213461046114600F094BF69
:1030700040F2013200204FF0E04101F015BD0000A8
:10308000024A0020110701F00FBD000001FDFFFF03
:10309000014600BF704700002DE9F041C1F30A521C
:1030A000A2F2FF362F4A304B0D460446142E2FDA7B
:1030B000002E12DA00F0B4FE0022134601F056FA98
:1030C0004CD2002DBCBF4FF00045002446DB55EA32
:1030D000040018BF254D19D140E0DFF894C02CFA48
:1030E00006F705EA070C5CEA040C08BFBDE8F081AE
:1030F00000F096FE0022134601F038FA2ED2002D81
:1031000003DD4FF48010F0400544BD43002425E06A
:10311000332EC8BFBDE8F081A6F1140C4FF0FF3785
:1031200027FA0CF73C4208BFBDE8F08101F0AEFA87
:103130000022134601F01AFA10D2002D0DDD142ED4
:1031400008BF6D1C09D0C6F13400012101FA00F05E
:103150002044A04238BF6D1C0446BC43294620468B
:10316000BDE8F0819C7500883CE4377E0000F03FAC
:10317000FFFF0F002DE9F041C1F30A52A2F2FF3622
:103180002F4A304B0D460446142E2FDA002E12DA49
:1031900000F046FE0022134601F0E8F94CD2002D63
:1031A000A4BF0024254647DA25F00040204318BF7D
:1031B000254D41D018E0DFF894C02CFA06F705EA57
:1031C000070C5CEA040C08BFBDE8F08100F028FEA3
:1031D0000022134601F0CAF92ED2002D03DA4FF473
:1031E0008010F0400544BD43002425E0332EC8BFC5
:1031F000BDE8F081A6F1140C4FF0FF3727FA0CF769
:103200003C4208BFBDE8F08101F040FA00221346BD
:1032100001F0ACF910D2002D0DDA142E08BF6D1C90
:1032200009D0C6F13400012101FA00F02044A04287
:1032300038BF6D1C0446BC4329462046BDE8F081DA
:103240009C7500883CE4377E0000F0BFFFFF0F0054
:1032500070B504460D4600BF80210548FFF7E6FD26
:103260000028F9D0E1B20248FFF783FE204670BD86
:10327000003801408AB0FDF725FAFDF787FBFDF71E
:10328000F6FBFDF7D7FBD0223B493CA0FCF7C6FF7D
:103290003F4840490860404888604048486040488E
:1032A000C86040480861404801683A4888473E483D
:1032B000C1683E48884740F6B83000210591069124
:1032C000CDE90710012008220223CDE90132CDE922
:1032D00003100B2000903448012300221621C469FA
:1032E0001846A047002006900790089009900120FA
:1032F000002102910391CDE904100820CDE90010CE
:10330000294802230B22012184690846A047284846
:10331000007810B3E522184926A0FCF77FFF502063
:103320002B490870492048704E2088704720C8708B
:10333000012204212648FEF7FAF8264908800846AB
:103340000088001222490871224800784871164806
:103350000621826A1E48904709E0F02206491EA015
:10336000FCF75CFF1048416B4FF47A70884702E02D
:103370000D49086E8047FBE7854B00085B257328E5
:10338000292D25645D696E6974206F6B0D0A00003C
:103390006913000848010020D5100008A513000893
:1033A000B51200088D120008584C00088050DE1934
:1033B000000000205B257328292D25645D6D617355
:1033C0007465722073656E642050494E470D0A0083
:1033D00064010020020000205B257328292D25644C
:1033E0005D736C61766520656E74657220727820FD
:1033F0006D6F64650D0A00002DE9F04D1D460C4609
:1034000098B0174621F0004123F00043002814BF74
:103410004FF0010C4FF0000C0CEB440CFE4A0CEB8F
:1034200002064FEA620C66452BD33E0018BF012608
:1034300006EB45061644F94A964222D3F84A53EA67
:10344000070C02D0944205D148B918B000201146AB
:10345000BDE8F08D002808BF4FF0000C01D04FF000
:10346000010C0CEB440212F5001F0AD8002F14BF08
:103470004FF0010C4FF0000C0CEB450212F5001F51
:1034800007D918B03A462B462146BDE8F04DFFF764
:10349000E7BD0022DFF88CA3002CB8BF534526DA25
:1034A000DFF884C36345A8BF022220DADFF870C3C7
:1034B0009C451CDCDFF874C30CEB235CBCF1140FDF
:1034C00008DDCCF1340627FA06FC0CFA06F6BE42FB
:1034D0000DD108E05FB9CCF1140623FA06FC0CFA12
:1034E00006F69E4203D10CF00102C2F1020251EA3B
:1034F000000C19D1002D17DA002C18BF022A01D0B8
:10350000012A07D00220FCF7D0FF18B0BDE8F04D2B
:10351000FFF79EBD0220FCF7C8FFFFF799FD18B02A
:1035200081F00041BDE8F08DB7F1000C6CD153453E
:1035300025D104F1804212F5801201BF002800203D
:10354000B74918B008BFBDE8F08DB548884207DC20
:10355000002DA1BF6046294618B0BDE8F08D07E0F8
:10356000281E05DA80F0004118B06046BDE8F08DF5
:10357000AF497944D1E9000118B0BDE8F08DDFF81A
:10358000A0C2634525D1002D1FDA19B1514512D1D2
:10359000D8B909E0002840F0EC82A24A214618B0D0
:1035A00062F31E01BDE8F08D0020214618B060F3E3
:1035B0001E01BDE8F08D08DA18B02346BDE8F04DD5
:1035C00002460020614600F0E7BC18B02146BDE885
:1035D000F08D514518DAB5F1804F0DD0A5F1005CA2
:1035E000BCF1FF5C10D1B4F1000C0DDB18B06146EA
:1035F000BDE8F04D00F0EEBB234618B00246BDE832
:10360000F04D194600F0B4BE060024F0004C3BD14A
:10361000D9B1514533D1002C06DD002DA1BF0020CA
:10362000514618B0BDE8F08D002C01DD002D1BDBEC
:10363000002C13DA002D11DB012A4FF0000014BF1B
:1036400078497C4918B0BDE8F08D022A18BF002CDB
:103650000AD0012A08D1002C06DA0AE0002CB8BFF3
:10366000002D11DA012A04D0002018B00146BDE86F
:10367000F08D18B000204FF00041BDE8F08DA1F1B1
:103680004050B0F17F601AD0012000EBE47050EAA6
:10369000020421D0624C521E4FF0000B104304BFB5
:1036A0004FF0000B644C654883427CDD644A6548FA
:1036B00093421FDD884217DB002D25DB37E0002C0D
:1036C00000DA4AB1022A0CBF01204FF0FF3018B0D7
:1036D000BDE8F04D00F0E5BD0120FCF7E6FE18B0B6
:1036E000BDE8F04DFFF7BEBC4D4A8A4202DC002D1A
:1036F0000ADC1CE0814202DA002D18DA04E0484BB3
:10370000994220DD002D12DD0220FCF7CEFEFFF7EE
:10371000AFFC05460E46002253465846214600F0AF
:1037200027FE18B066F31E012846BDE8F08D022082
:10373000FCF7BBFEFFF7A4FC0A46214618B062F373
:103740001E01BDE8F08D00223046614601F090F880
:1037500080460E466FF0010201F0A6F94FF0553297
:10376000394B00F093FF4246334600F001FE002241
:10377000364B00F08BFF824642463346049110469A
:10378000194600F0F5FD5246049B00F0F1FD8A4613
:1037900000904FF0C0422E4B4046314600F0E8FD0D
:1037A0002C4A2B4B00E027E0CDE90601514600985A
:1037B00000F0DEFD82460191274A284B4046314603
:1037C00000F0D6FD5246019B01F052F882460B46AE
:1037D00002460591DDE9060100F022FBDDE9062342
:1037E00000268846304601F043F85246059B00F01B
:1037F0004DFF024600F07EB90020B1F5801F07DAC8
:1038000035223046614601F04FF906466FF034002C
:1038100000EB215024E00000FFFF1F00FFFF0F001E
:103820000000F03F0000F07F0000404301FCFFFF7C
:103830008A1800000000F0FF0000F0BF0000E04127
:103840000000F043FFFFEF3F5555D53F0000E03F3C
:103850004715F73FFE822B6544DF5DF80BAE543E03
:10386000A0F2FF300190C1F3130040F07F6141F0FE
:1038700040510291FE498842D8BF002004DDFD4935
:103880008142C8BF012001DD0D9008E000200D90AD
:103890000198401C01900298A0F5801002900299B6
:1038A000F54878440B910D9900EBC100D0E9002355
:1038B0000F9330460A920B9900F0DAFFCDE906012A
:1038C000DDE90A2130460F9B00F0AAFA02460B46BA
:1038D0000020EA4900F060FB059102460B4600908B
:1038E000DDE9060100F044FD1490E5488A464FF0FA
:1038F000000878440299006812904FF0005040EAA6
:1039000061010D980F9B01EB804000F500210991AA
:103910000A9A129800F0ACFF32460B9B00F0B6FEFC
:103920004246534600F024FD064602914046514669
:10393000099B129A00F01CFDDDE9062300F0A6FEAB
:103940003246029B00F094FF059B009A00F010FDA8
:103950000091149A049053461046194600F008FD51
:1039600006460246C7480B46029106217844FFF7F7
:103970001AFBCDE90510029B32461046194600F0AD
:10398000F7FCDDE9053200F0F3FC059106465346ED
:1039900040461946149A00F043FA009B049A00F03E
:1039A000E7FC3246059B00F03BFACDE905104246A4
:1039B00053461046194600F0DBFC0022B24B029140
:1039C0000A9000F02DFADDE9053200F029FA0E46E2
:1039D0004246AD4B404600F04BFF029B0A9A00F076
:1039E00047FFDDE9053200F051FE424602910A90A0
:1039F00033461046514600F0BBFCCDE90601534664
:103A0000149A02990A9800F0B3FC8A460290334651
:103A100042460099049800F0ABFC5346029A00F02D
:103A2000FFF982460B4602460591DDE9060100F0EA
:103A3000F7F9DDE9062300208846064600F018FF66
:103A40005246059B00F022FE824609914FF06042EB
:103A50008E4B3046414600F08BFC049006918C4A18
:103A60008A4B5046099900F083FC82460291894AAC
:103A7000894B3046414600F07BFC5246029B00F0E9
:103A8000CFF9864B7B440D9A03EBC203D3E90023A5
:103A900000F0C6F90E900791019800F002FC059124
:103AA000DDE9061382460E9A049800F0B9F97C4AC3
:103AB0007A440D9B02EBC303D3E9002300930292E7
:103AC00000F0AEF95246059B00F0AAF900268846A0
:103AD00052463046059B00F0CBFE009B029A00F058
:103AE000C7FE069B049A00F0C3FE079B0E9A00F0E7
:103AF000CDFD024600200B4602903846294600F0D4
:103B000037FC824601912B4638461946029A00F04E
:103B1000AFFE3246434600F02BFC5246019B00F0BC
:103B20007FF907468A46324643462946029800F006
:103B30001FFC05460E463A46534600F071F9594AB5
:103B40008846914221DBA8EB020353EA000210D120
:103B50002A46334600F08CFECDE90401524A534B0D
:103B60003846514600F05CF9DDE9042300F0FEFC24
:103B700021D20220FCF799FCFFF77AFA0A46214687
:103B800018B062F31E01BDE8F08D494B28F00042E9
:103B90009A4210D3474A08EB020353EA00027FF42B
:103BA000C6AD2A46334600F063FE3A46534600F05F
:103BB000DDFC7FF6BCAD0022019228F000403E49BA
:103BC0003E4A01EB2051824223DA481C4FF4801117
:103BD00021FA00F040443A4AC0F30A517A44394B82
:103BE000A1F2FF31CB4020EA0303C0F3130040F4FD
:103BF0008010C1F11401C84012680190B8F1000FA3
:103C0000BCBF404201902846314600F031FE0546D7
:103C10000E462A4633463846514600F001F94FF029
:103C200000084246284B4046059100F0A1FBCDE933
:103C30000601264A264B4046059900F099FB009163
:103C400002902A4633464046059900F011FE3A4656
:103C5000534600F01BFD1F4A1F4B00F089FB009BE1
:103C6000029A00F0DDF80746884602460B4635E02A
:103C70008E9803007AB60B00D21400000000F03FCB
:103C80000A150000381400000000084009C7EE3F84
:103C9000FD033ADCF5015B14E02F3EBE101300007B
:103CA000D412000000009040FE822B654715973C1F
:103CB00000CC904000346F3F01FCFFFF0000E03F6C
:103CC00020120000FFFF0F00432EE63F396CA80CC6
:103CD000615C20BEEF39FAFE422EE63FDDE90601C7
:103CE00000F09EF8DDE9062305460E4600F0C0FD13
:103CF0003A46434600F0CAFC0F462A463346009037
:103D00001046194600F034FB824602462E4888468B
:103D10000B4605217844FFF746F95246434600F02A
:103D200027FB2A46334600F0B1FC80468A463B46D4
:103D300028463146009A00F01BFB3B46009A00F0F3
:103D40006FF80691009000224FF0804340465146A4
:103D500000F08EFD0F460C904246534628463146F1
:103D600000F006FB3B460C9A00F016F9069B009A01
:103D700000F07EFD2A46334600F07AFD0022134B08
:103D800000F084FC054601980E4601EB0051081531
:103D9000002810DC28463146019A00F085FEFFF726
:103DA000EEF8042808BFFFF76BF928463146019A60
:103DB00000F07AFE05460B4618B02A4658462146C2
:103DC000BDE8F04D00F0D4BAC01000000000F03F94
:103DD00000F002BC2DE9F04106460F4600F062FCFF
:103DE000041E0D4618BF0120284320F00040C0F1FA
:103DF0007F6000F1E040C00F0ED0301C18BF0120E2
:103E0000384320F00040C0F17F6000F1E040C00F77
:103E100004BF0120FCF749FB20462946BDE8F0819C
:103E200010B591EA030F48BF83F0004300F12885E5
:103E3000841A71EB030C05D2121943EB0C03001B1F
:103E400061EB0C01DFF824E14FEA1154A4EB135CA1
:103E50001EEA430F18BF9EEA445F73D023EA0E03A5
:103E6000DCF1200E21EA045143F4801332D322FA0C
:103E70000CFE10EB0E0023FA0CFE41EB0E01CCF110
:103E8000200E03FA0EFE10EB0E0051F10001B1F509
:103E9000801FCCF1200E32D201EB045112FA0EF247
:103EA000BDE8104058BF7047401C38BF5FEA42026F
:103EB00018BF7047002814BF20F0010041F1000135
:103EC0004FEA410313F5001F38BF7047A1F1C0410D
:103ED00000F046BB012A43EB0302ACF1200CDCF1FD
:103EE0001F0E32BF4FF0000E23FA0CF310EB03004D
:103EF00041EB0451B4EB115FD0D0A1EB045101F5BB
:103F0000801149085FEA300001EB04510ED350F1F3
:103F1000000038BF12FA0EFE08D1BDE81040C9E714
:103F2000401C38BF5FEA4202CAD1C3E7BDE8104077
:103F30004FEA410313F5001F38BF7047A1F1C0419C
:103F400000F00EBB9EEA445F08D011EA5E0FBDE8A8
:103F5000104004BF01F0004100207047BDE8104050
:103F600070B500F0AFFA00BF64FBBE3E0000E0FF9A
:103F700002494FF0000000F065BD00BF0000F87F6F
:103F8000491058BFC1F140415B1058BFC3F14043D5
:103F90008B42EFF3008070472DE9C04130B4DFF869
:103FA000A0C23CEA111418BF3CEA131400F0EC80E4
:103FB00081EA03051CEA111444EAD57418BF1CEA0F
:103FC000131500F0C780A4EB05044FF0004545EA47
:103FD000C12145EAC32341EA505143EA525304F157
:103FE0007F74994204F500344FEAC0204FEAC222A0
:103FF00008BF904200F09C804FEA13650FF2401614
:10400000765D4FEA134506FB05F7C7F1807706FB9F
:1040100007F74FEAD737A7FB03687642C8F5803821
:10402000A7FB06CE38BFA8F1010807FB08E64FF052
:10403000000EA6FB028CE6FB03CEDCF1000CCEF1F9
:10404000004E38BFAEF1010EA6FB0C584FF0000732
:104050004FF00005E6FB0E87A1FB08C6A0FB07CECC
:1040600016EB0E0645F10005E1FB076515F1E04E84
:104070007EBFA4F580345FEA46066D4116F18007E5
:1040800045F100054FEA17274FEA066647EA05673C
:10409000A6F1DE46B6F1805F4FEA15251FD93846F6
:1040A00024F0010C05EBC471BCF1FE6F01EB0C11A7
:1040B00002D8F0BCBDE8008124425CBF01F5801E3F
:1040C0009EEAC47F02D4F0BCBDE80081244238D40B
:1040D000F0BCA1F1C041BDE8004100F041BA4FEA97
:1040E000D22242EA43524FEAD323A7FB02864FEA89
:1040F000D02040EA415007FB03661EEA0E0F4FEA4C
:10410000D12105FB026658BFA6EB0056B6EB005660
:104110004FEA520E4EEAC37E18EB0E0E56EB530ECC
:10412000BDD518EB02085E417F1C55F10005B6E7CE
:104130004FF480154FF000074FF000064FF00008D5
:10414000ADE7F0BC4FF0000001F1C04101F00041CB
:10415000BDE8008111EA0C1F0CEA131500D00CE039
:1041600013EA0C1F00F025804FF00000F0BC81EA3C
:10417000030101F00041BDE80081F0BCBDE8004151
:1041800081EA030100F0ECB9F0BCBDE8004170B574
:1041900000F098F9097EFC3E00F007B881EA0301BF
:1041A0004FF0000001F00041704781EA030100F088
:1041B000D7B9F0BCBDE800414FF00000214970477D
:1041C000FFFDFBF9F7F5F4F2F0EEEDEBE9E8E6E4DC
:1041D000E3E1E0DEDDDBDAD8D7D5D4D3D1D0CFCD63
:1041E000CCCBCAC8C7C6C5C4C2C1C0BFBEBDBCBB9C
:1041F000BAB9B8B7B6B5B4B3B2B1B0AFAEADACAB97
:10420000AAA9A8A8A7A6A5A4A3A3A2A1A09F9F9E70
:104210009D9C9C9B9A999998979796959594939322
:10422000929191908F8F8E8E8D8C8C8B8B8A8989B9
:10423000888887878685858484838382828181803C
:104240000000FF070000F87F4FEA1153A3F58063D9
:10425000D3F11E03A8BFD3F1200C08DB4FF00042BE
:1042600042EAC12252EA505232FA03F07047094240
:104270000BD4102BC4BF0020704703F5787CBCF131
:10428000FF3F05D04FF0FF3070474FF00000704700
:1042900070B500F017F900BF4992248000207047E4
:1042A000F0E710F0004248BF4042B0FA80F310FA45
:1042B00003F10AD0C3F11D0303F580634FEA4150B7
:1042C00002EB035202EBD12170474FF00000704720
:1042D000B0FA80F310FA03F10AD0C3F11D0303F51D
:1042E00080634FEA41504FEA035202EBD1217047FD
:1042F0004FF000007047000051EA030C17D41CF582
:10430000801F58BFBCF5801F00F10680994218BF7E
:10431000704708BF9042704707D711F5801F58BFFC
:1043200013F5801F19D499427047894270471CF5D4
:10433000801F08D5BCF5801FF7D58B4218BF70478A
:1043400008BF824270474FF4001C1CEB410F38BF7E
:104350001CEB430F01D28B42704770B500F0B2F8EE
:10436000922449004FF000514FF08053FFF708BEF0
:10437000DFF848C170B51CEA111E1EBF1CEA1315F8
:104380009EEA0C0F95EA0C0F00F06F8081EA03049F
:1043900023EA4C134EEAD47E21EA4C1141F48011F9
:1043A00043F48013AE44A1FB024CA0FB0365AEF1C5
:1043B0007F7E361955EB0C05A1FB034C4CF1000335
:1043C000A0FB021C16EB0C06654153F100030942E9
:1043D00018BF46F0010613F4007F0BD14FEA0331FA
:1043E0004FEA0530340341EA155140EA16506FF0A8
:1043F00003020AE04FEAC3214FEAC520F40241EA72
:10440000555140EA56506FF0020202EB2E4201EB8A
:10441000025585EACE710AD05FEA440C18BF24F039
:10442000004450F1000041F1000120EAD47040F254
:10443000FE7C624500D270BDA84214BF4FF080449C
:104440004FF04044002E08BF0024BEF1806FA8BF8B
:10445000A1F1C041BDE8704080F282804FF00000C1
:1044600001F1C04101F0004170479EEA0C0F0CEAD7
:10447000131518BF95EA0C0F06D04FF0000081EA23
:10448000030E0EF0004170BD00F01CF88900013EE3
:1044900000F007B800F009B84FEA430C5FEA5C5C33
:1044A00008D081EA030100F05BB84FEA410C5FEAF3
:1044B0005C5CF6D14FF00000014970470000FF0737
:1044C0000000F87F0EF1020E2EF0030E5EF8046B72
:1044D000364205D4012A43EB030515F5001F12D817
:1044E000012841EB010C1CF5001F0CD80ED14FEA3E
:1044F000D17C15F5001F0CEB4C0C0CF1020C08BF25
:104500004CEBD37C04E04FF0080C01E04FEAD37C85
:104510000CEB4C0526FA05F606F00706B6F1040C7E
:1045200006D20EEB860CBDE870404CF0010C6047E3
:10453000DFE80CF0090B02024FF000414FF00000E1
:10454000A1F5002170BD19461046012851EB010468
:1045500018BFD4F5001484BF002001F0004170BDE5
:104560000808A0F500114FEA3101704753EA010C29
:1045700017D41CF5801F58BFBCF5801F00F10680C2
:104580008B4218BF704708BF8242704707D713F5A8
:10459000801F58BF11F5801F19D48B4270479B4272
:1045A00070471CF5801F08D5BCF5801FF7D59942D0
:1045B00018BF704708BF904270474FF4001C1CEBB7
:1045C000430F38BF1CEB410F01D2994270470FB423
:1045D0000CBC03BCFFF7C1BE5FEA410C5FEA5C5C48
:1045E000ACF580635B1C39D4D3F1340240F34580D1
:1045F000B2F1200314DA4FF0010C0CFA02FCACF11A
:1046000001030340B3EB5C0220EA030008BF10EA99
:104610000C0F98BF704710EB0C0041F10001704780
:104620000AD0C3F1200201FA02FC012821FA03F1A9
:1046300001FA03F14CF100004FF0010C0CFA03FCFD
:10464000ACF10103B0F1004F21EA030108BF11EA08
:104650000C0F4FF0000088BF61447047B3F1FF3F7B
:1046600028BF50EAC12C01F000414FF0000084BF88
:1046700041F07C5141F470017047B3F5806FB8BFD1
:10468000704770B5FFF71EFF40DBB6BE91EA030F1F
:1046900010B581F000413FF5CBAB83F0004300F053
:1046A000EFB800002DE9F04101F5801CBCF5001FBA
:1046B000C0F2C3804FEA115C21EA0C510CF1FD0CF1
:1046C00041F480115FEA5C0C0CF5C07C01D3400022
:1046D00049413DA4890241EA905187028E0E0A0C9D
:1046E000A45D04FB04F602FB06F6C6F14046A4FBFB
:1046F0000662F60D46EA422606FB06F4A4FB0123F9
:104700005242C3F1404338BF5B1EA6FB0242002465
:10471000E6FB0324D20B42EA4446A6FB0623A1FB98
:1047200002E2A3FB07E4A4184FF0000252F10002DA
:10473000E3FB01426442C2F1404E38BFAEF1010ECC
:10474000A6FB04234FF00002E6FB0E32A2FB034659
:104750004FF00004B61954F10004E2FB0264A1FB1F
:1047600006E6A4FB07E816EB08064FF0000858F130
:104770000008E4FB01687642C8F1405838BFA8F150
:104780000108A2FB06E4A3FB08E52D194FF0000485
:1047900054F10004E2FB0854A1FB05E6A7FB04E882
:1047A00018EB06084FF0000656F10006E1FB048600
:1047B00018F1200556F10006A809A8F11B08B10957
:1047C00008F03F08B8F10A0F40EA86601CD901EBF7
:1047D0000C51BDE8F08100BFFCF5EEE8E2DDD8D376
:1047E000CFCBC7C3C0BDB9B6B4B1AEACA9A7A5A362
:1047F000A19F9D9B9A9896959392908F8D8C8B8973
:104800008887868584838281A0FB006800FB01F293
:1048100008EB4208B8EB872807D5341858EB010499
:10482000D5D5401C51F10001D1E7341A78EB0104D1
:10483000CDD4401E71F10001C9E75FEA4C0C5FEA7C
:104840009C5C0DD105D34FF0000001F00041BDE8A4
:10485000F081BDE8F04170B5FFF734FE6DDBFFBEBF
:10486000BDE8F0414FF00000004970470000F87FBC
:1048700010B591EA030F48BF83F000433FF5D8AA73
:10488000841A71EB030C07D212198CF0004C43EB25
:104890000C03001B61EB0C01DFF8A4E14FEA11549B
:1048A000A4EB135C1EEA430F18BF9EEA445F00F0BE
:1048B000B08023EA6E03524221EA0451C3EB6E0337
:1048C00038BF5B1EDCF1200E25D322FA0CFE10EB64
:1048D0000E0043FA0CFE41EB0E01CCF1200E03FA60
:1048E0000EFE10EB0E0051F10001CCF1200E29D488
:1048F00012FA0EF201EB0451BDE8104058BF7047A8
:10490000401C1CBFB2F1004F704700280CBF491C6F
:1049100020F00100704712EB020E43EB030218BFB8
:104920004FF0010E4EEA4202ACF1200CDCF11E0EFB
:1049300054D943FA0CFE10EB0E0051F1FF31CCF1CB
:104940001E0ED5D50EF1010E12FA0EFE404141EBBE
:10495000010101EB445C5FEA5C5C10D910EBDE7096
:1049600001EB045138BFBEF1004FBDE8104018BF45
:10497000704700280CBF491C20F00100704730D25E
:104980004FEAD42C11F5001124F400641BD0B1FAC5
:1049900081F20B3AA41AA41ED2F12003914030FAFE
:1049A00003F31943904001EBCC71002C01EB04514F
:1049B000BDE81040A8BF704701F1C0414FF00000B2
:1049C00001F000417047B0FA80F310FA03F100D112
:1049D00010BDE41A173C4805C90AE4E701EB04518D
:1049E00010BD491001EB0451BDE810404FEA300002
:1049F00002E04FF0000170474A0008BF0042F8D0C3
:104A0000B2F5001F28BF704701F000414FF00000D1
:104A100070479EEA445F07D011EA5E0FBDE8104080
:104A200004BF002100207047BDE8104070B5FFF7BB
:104A300049FD00BF40DFF63E83F00041104670475D
:104A40000000E0FF0CF00F03092B08BF082000F066
:104A500059800A2B0BD0082B18BF704708BF1CF0D9
:104A6000400F0AD04FF000004FF0000170471CF0DB
:104A7000400F18BF4FF0004070471CF0100F08D0D7
:104A800020F0704300F07F4242EAD3014FEA4370C6
:104A9000704700F0604021F07F4242EA000201F0DE
:104AA0007F4040EA727070474FF0FF0C4CF4E06CAE
:104AB0001CEA11531CBF9CEA030C9445C2BFDA42A6
:104AC00001EB02517047002B0DD0BCF1000F0FD04D
:104AD000002A01F00041A4BF41F0E04141F07F61B4
:104AE0004FF00000704701F000414FF000007047A8
:104AF00050EA01334FF09B0C18BF4CF0806C7FF4F0
:104B000037AA70471CF4801F11D01CF4E02F03D08B
:104B10006FEACC31490070474FF04050EFF300820C
:104B200022F0704242EA000282F3008870474FF0A0
:104B300000007047456D62656465642D5061727454
:104B4000790048656C6C6F2D45766572796F6E657E
:104B5000004F6E5478446F6E65004F6E5278446F0C
:104B60006E65004F6E547854696D656F7574004FB3
:104B70006E527854696D656F7574004F6E5278454A
:104B800072726F72006D61696E00000001000200B8
:104B90000400080010002000400080000001000216
:104BA000000400080010002000400080FFFF00000B
:104BB00004000000080000001000000020000000B9
:104BC0004000000080000000000100000100000023
:104BD00002000000040000000800000010000000B7
:104BE00020000000400000008000000000010000E4
:104BF0000002000000040000000800000010000097
:104C0000002000000040000000800000080C10069A
:104C10000708090A1717171717282828282828FF10
:104C2000252627FFFF000000020000000100000011
:104C30000800100018002000280030003800000094
:104C400080004578616D706C6548414C4770696FB4
:104C5000496E4F7574000000ED150008C515000879
:104C6000F5180008B118000879170008B5170008F2
:104C70007D190008B11B000829150008911D0008C6
:104C8000751800085F1D00087F1D00081518000832
:104C9000891D0008451D00080B180008B51F0008F5
:104CA000EB170008C51F0008F7170008BD1800081B
:104CB00039190008E91500083916000845180008D8
:104CC000A11B0008C01200001F000000A816000071
:104CD00017000000841C00000F000000E425000005
:104CE0001E000000B42D000016000000083900006E
:104CF0000E0000002C4C00001D000000685B00004E
:104D000015000000747200000D00000058980000AB
:104D10001C00000034B7000014000000E8E40000AC
:104D20000C000000783101001B000000686E0100DB
:104D30001300000034CA01000B00000028620200CA
:104D40001A00000040DB0200120000003C93030048
:104D50000A000000C0C204001900000060B3050092
:104D600011000000382007000900000020A1070002
:104D70000000000004050600000000000000F03FF5
:104D8000000000000000F83F0000000000000000EC
:104D90000000004003B8E23F0000000000000000F7
:104DA00006D0CF43EBFD4C3E033333333333E33F85
:104DB000FFAB6FDBB66DDB3F4D268F515555D53FB1
:104DC00001411DA96074D13F65DBC9934A86CD3F7F
:104DD000EF4E454A287ECA3F3E5555555555C53F6D
:104DE00093BDBE166CC166BF2CDE25AF6A56113F5F
:104DF000F16BD2C541BDBBBED0A4BE726937663E61
:104E00000000000000000000284E00080000002004
:104E100048010000280100089C4E000848010020BD
:104E2000A8080000840100083201824084A24A04DC
:104E3000680901020304060708090C691015020439
:104E40000608140801401A0C041A10041A14041A53
:104E500018041A1C041A2004411A38081A44571A54
:104E600048041A4C044A5063021CFF1A30341A38A2
:104E7000284A3C2C4809FCA9F1D24D624040085A0E
:104E800030085A20085A10081159080B2CF03F28F6
:0C4E90005AE0080926280B1BD03FBC315B
:04000005080000ED02
:00000001FF
